{
  "contractName": "Crowdsale",
  "abi": [
    {
      "constant": true,
      "inputs": [],
      "name": "icoEnd",
      "outputs": [
        {
          "name": "",
          "type": "uint256"
        }
      ],
      "payable": false,
      "stateMutability": "view",
      "type": "function"
    },
    {
      "constant": true,
      "inputs": [],
      "name": "weiRaised",
      "outputs": [
        {
          "name": "",
          "type": "uint256"
        }
      ],
      "payable": false,
      "stateMutability": "view",
      "type": "function"
    },
    {
      "constant": true,
      "inputs": [],
      "name": "wallet",
      "outputs": [
        {
          "name": "",
          "type": "address"
        }
      ],
      "payable": false,
      "stateMutability": "view",
      "type": "function"
    },
    {
      "constant": false,
      "inputs": [],
      "name": "renounceOwnership",
      "outputs": [],
      "payable": false,
      "stateMutability": "nonpayable",
      "type": "function"
    },
    {
      "constant": true,
      "inputs": [],
      "name": "icoTokenSaleLimit",
      "outputs": [
        {
          "name": "",
          "type": "uint256"
        }
      ],
      "payable": false,
      "stateMutability": "view",
      "type": "function"
    },
    {
      "constant": true,
      "inputs": [],
      "name": "icoStart",
      "outputs": [
        {
          "name": "",
          "type": "uint256"
        }
      ],
      "payable": false,
      "stateMutability": "view",
      "type": "function"
    },
    {
      "constant": true,
      "inputs": [],
      "name": "owner",
      "outputs": [
        {
          "name": "",
          "type": "address"
        }
      ],
      "payable": false,
      "stateMutability": "view",
      "type": "function"
    },
    {
      "constant": true,
      "inputs": [],
      "name": "preICOPrimaryStart",
      "outputs": [
        {
          "name": "",
          "type": "uint256"
        }
      ],
      "payable": false,
      "stateMutability": "view",
      "type": "function"
    },
    {
      "constant": true,
      "inputs": [],
      "name": "preICOSecondaryStart",
      "outputs": [
        {
          "name": "",
          "type": "uint256"
        }
      ],
      "payable": false,
      "stateMutability": "view",
      "type": "function"
    },
    {
      "constant": false,
      "inputs": [
        {
          "name": "newOwner",
          "type": "address"
        }
      ],
      "name": "transferOwnership",
      "outputs": [],
      "payable": false,
      "stateMutability": "nonpayable",
      "type": "function"
    },
    {
      "constant": true,
      "inputs": [],
      "name": "token",
      "outputs": [
        {
          "name": "",
          "type": "address"
        }
      ],
      "payable": false,
      "stateMutability": "view",
      "type": "function"
    },
    {
      "inputs": [],
      "payable": false,
      "stateMutability": "nonpayable",
      "type": "constructor"
    },
    {
      "payable": true,
      "stateMutability": "payable",
      "type": "fallback"
    },
    {
      "anonymous": false,
      "inputs": [
        {
          "indexed": true,
          "name": "purchaser",
          "type": "address"
        },
        {
          "indexed": true,
          "name": "beneficiary",
          "type": "address"
        },
        {
          "indexed": false,
          "name": "value",
          "type": "uint256"
        },
        {
          "indexed": false,
          "name": "amount",
          "type": "uint256"
        }
      ],
      "name": "TokenPurchase",
      "type": "event"
    },
    {
      "anonymous": false,
      "inputs": [
        {
          "indexed": true,
          "name": "previousOwner",
          "type": "address"
        }
      ],
      "name": "OwnershipRenounced",
      "type": "event"
    },
    {
      "anonymous": false,
      "inputs": [
        {
          "indexed": true,
          "name": "previousOwner",
          "type": "address"
        },
        {
          "indexed": true,
          "name": "newOwner",
          "type": "address"
        }
      ],
      "name": "OwnershipTransferred",
      "type": "event"
    },
    {
      "constant": false,
      "inputs": [
        {
          "name": "_wallet",
          "type": "address"
        }
      ],
      "name": "updateWalletForFunds",
      "outputs": [],
      "payable": false,
      "stateMutability": "nonpayable",
      "type": "function"
    },
    {
      "constant": false,
      "inputs": [
        {
          "name": "_beneficiary",
          "type": "address"
        }
      ],
      "name": "buyTokens",
      "outputs": [],
      "payable": true,
      "stateMutability": "payable",
      "type": "function"
    }
  ],
  "bytecode": "0x60806040526201263d6005556201197260065561ffdc60075534801561002457600080fd5b506012600d81905550600d54600a0a63ee6b280002600c8190555033600260006101000a81548173ffffffffffffffffffffffffffffffffffffffff021916908373ffffffffffffffffffffffffffffffffffffffff160217905550336000806101000a81548173ffffffffffffffffffffffffffffffffffffffff021916908373ffffffffffffffffffffffffffffffffffffffff1602179055504260088190555062093a806008540160098190555062093a8060095401600a81905550622e2480600a5401600b81905550610b7e806101006000396000f3006080604052600436106100c5576000357c0100000000000000000000000000000000000000000000000000000000900463ffffffff1680630563451a146100d057806321a8a94f146100fb5780634042b66f1461013e578063521eb27314610169578063715018a6146101c057806373ece309146101d7578063827037db146102025780638da5cb5b1461022d5780639b4e956414610284578063ba24a076146102af578063ec8ac4d8146102da578063f2fde38b14610310578063fc0c546a14610353575b6100ce336103aa565b005b3480156100dc57600080fd5b506100e5610490565b6040518082815260200191505060405180910390f35b34801561010757600080fd5b5061013c600480360381019080803573ffffffffffffffffffffffffffffffffffffffff169060200190929190505050610496565b005b34801561014a57600080fd5b50610153610535565b6040518082815260200191505060405180910390f35b34801561017557600080fd5b5061017e61053b565b604051808273ffffffffffffffffffffffffffffffffffffffff1673ffffffffffffffffffffffffffffffffffffffff16815260200191505060405180910390f35b3480156101cc57600080fd5b506101d5610561565b005b3480156101e357600080fd5b506101ec610663565b6040518082815260200191505060405180910390f35b34801561020e57600080fd5b50610217610669565b6040518082815260200191505060405180910390f35b34801561023957600080fd5b5061024261066f565b604051808273ffffffffffffffffffffffffffffffffffffffff1673ffffffffffffffffffffffffffffffffffffffff16815260200191505060405180910390f35b34801561029057600080fd5b50610299610694565b6040518082815260200191505060405180910390f35b3480156102bb57600080fd5b506102c461069a565b6040518082815260200191505060405180910390f35b61030e600480360381019080803573ffffffffffffffffffffffffffffffffffffffff1690602001909291905050506103aa565b005b34801561031c57600080fd5b50610351600480360381019080803573ffffffffffffffffffffffffffffffffffffffff1690602001909291905050506106a0565b005b34801561035f57600080fd5b506103686107f5565b604051808273ffffffffffffffffffffffffffffffffffffffff1673ffffffffffffffffffffffffffffffffffffffff16815260200191505060405180910390f35b6000803491506103ba838361081b565b6103c38261088d565b905080600c54101515156103d657600080fd5b6103eb8260045461098190919063ffffffff16565b6004819055506103fb838261099d565b61041081600c546109ab90919063ffffffff16565b600c819055508273ffffffffffffffffffffffffffffffffffffffff163373ffffffffffffffffffffffffffffffffffffffff167f623b3804fa71d67900d064613da8f94b9617215ee90799290593e1745087ad188484604051808381526020018281526020019250505060405180910390a361048b6109c4565b505050565b600b5481565b6000809054906101000a900473ffffffffffffffffffffffffffffffffffffffff1673ffffffffffffffffffffffffffffffffffffffff163373ffffffffffffffffffffffffffffffffffffffff161415156104f157600080fd5b80600260006101000a81548173ffffffffffffffffffffffffffffffffffffffff021916908373ffffffffffffffffffffffffffffffffffffffff16021790555050565b60045481565b600260009054906101000a900473ffffffffffffffffffffffffffffffffffffffff1681565b6000809054906101000a900473ffffffffffffffffffffffffffffffffffffffff1673ffffffffffffffffffffffffffffffffffffffff163373ffffffffffffffffffffffffffffffffffffffff161415156105bc57600080fd5b6000809054906101000a900473ffffffffffffffffffffffffffffffffffffffff1673ffffffffffffffffffffffffffffffffffffffff167ff8df31144d9c2f0f6b59d69b8b98abd5459d07f2742c4df920b25aae33c6482060405160405180910390a260008060006101000a81548173ffffffffffffffffffffffffffffffffffffffff021916908373ffffffffffffffffffffffffffffffffffffffff160217905550565b600c5481565b600a5481565b6000809054906101000a900473ffffffffffffffffffffffffffffffffffffffff1681565b60085481565b60095481565b6000809054906101000a900473ffffffffffffffffffffffffffffffffffffffff1673ffffffffffffffffffffffffffffffffffffffff163373ffffffffffffffffffffffffffffffffffffffff161415156106fb57600080fd5b600073ffffffffffffffffffffffffffffffffffffffff168173ffffffffffffffffffffffffffffffffffffffff161415151561073757600080fd5b8073ffffffffffffffffffffffffffffffffffffffff166000809054906101000a900473ffffffffffffffffffffffffffffffffffffffff1673ffffffffffffffffffffffffffffffffffffffff167f8be0079c531659141344cd1fd0a4f28419497f9722a3daafe3b4186f6b6457e060405160405180910390a3806000806101000a81548173ffffffffffffffffffffffffffffffffffffffff021916908373ffffffffffffffffffffffffffffffffffffffff16021790555050565b600160009054906101000a900473ffffffffffffffffffffffffffffffffffffffff1681565b600854421015151561082c57600080fd5b600b54421115151561083d57600080fd5b600073ffffffffffffffffffffffffffffffffffffffff168273ffffffffffffffffffffffffffffffffffffffff161415151561087957600080fd5b6000811415151561088957600080fd5b5050565b6000806009544210156108e357600554670de0b6b3a76400008115156108af57fe5b0490506108dc816108ce600d54600a0a86610a2f90919063ffffffff16565b610a6790919063ffffffff16565b915061097b565b600a5442101561093657600654670de0b6b3a764000081151561090257fe5b04905061092f81610921600d54600a0a86610a2f90919063ffffffff16565b610a6790919063ffffffff16565b915061097b565b600754670de0b6b3a764000081151561094b57fe5b0490506109788161096a600d54600a0a86610a2f90919063ffffffff16565b610a6790919063ffffffff16565b91505b50919050565b6000818301905082811015151561099457fe5b80905092915050565b6109a78282610a7d565b5050565b60008282111515156109b957fe5b818303905092915050565b600260009054906101000a900473ffffffffffffffffffffffffffffffffffffffff1673ffffffffffffffffffffffffffffffffffffffff166108fc349081150290604051600060405180830381858888f19350505050158015610a2c573d6000803e3d6000fd5b50565b600080831415610a425760009050610a61565b8183029050818382811515610a5357fe5b04141515610a5d57fe5b8090505b92915050565b60008183811515610a7457fe5b04905092915050565b600073ffffffffffffffffffffffffffffffffffffffff168273ffffffffffffffffffffffffffffffffffffffff1614151515610ab957600080fd5b610b0b81600360008573ffffffffffffffffffffffffffffffffffffffff1673ffffffffffffffffffffffffffffffffffffffff1681526020019081526020016000205461098190919063ffffffff16565b600360008473ffffffffffffffffffffffffffffffffffffffff1673ffffffffffffffffffffffffffffffffffffffff1681526020019081526020016000208190555050505600a165627a7a72305820d619cf972b722cd82e6c82e8ea80e7ca2e804fca89f6481cf48dcec0379ba2470029",
  "source": "pragma solidity ^ 0.4 .23;\n\nimport \"./ERC20.sol\";\nimport \"./SafeMath.sol\";\nimport \"./Ownable.sol\";\n\n/**\n * @title Crowdsale\n * @dev Crowdsale is a base contract for managing a token crowdsale,\n * allowing investors to purchase tokens with ether. This contract implements\n * such functionality in its most fundamental form and can be extended to provide additional\n * functionality and/or custom behavior.\n * The external interface represents the basic interface for purchasing tokens, and conform\n * the base architecture for crowdsales. They are *not* intended to be modified / overriden.\n * The internal interface conforms the extensible and modifiable surface of crowdsales. Override\n * the methods to add functionality. Consider using 'super' where appropiate to concatenate\n * behavior.\n * This Contract help to hold tokens which will be transfered after token sale\n */\ncontract Crowdsale is Ownable {\n    using SafeMath for uint256;\n\n    // The token being sold\n    ERC20 public token;\n\n    // Address where funds are collected\n    address public wallet;\n\n    mapping(address => uint256) holdBalances;\n\n    // Amount of wei raised\n    uint256 public weiRaised;\n\n    /**\n   * Event for token purchase logging\n   * @param purchaser who paid for the tokens\n   * @param beneficiary who got the tokens\n   * @param value weis paid for purchase\n   * @param amount amount of tokens purchased\n   */\n    event TokenPurchase(\n        address indexed purchaser,\n        address indexed beneficiary,\n        uint256 value,\n        uint256 amount\n    );\n\n\n    uint preICOPrimaryTokenPerETH = 75325;\n    uint preICOSecondaryTokenPerETH = 72050;\n    uint icoStartTokenPerETH = 65500;\n    uint256 public preICOPrimaryStart;\n    uint256 public preICOSecondaryStart;\n    uint256 public icoStart;\n    uint256 public icoEnd;\n    uint256 public icoTokenSaleLimit;\n    uint256 decimals;\n\n    constructor()public {\n        decimals = 18;\n        icoTokenSaleLimit = 4000000000 * (10 ** decimals);\n        wallet = msg.sender; //TODO to change as per requiremnt to recieve funds\n        owner = msg.sender;\n        preICOPrimaryStart = now;\n        preICOSecondaryStart = preICOPrimaryStart + 7 days;\n        icoStart = preICOSecondaryStart + 7 days;\n        icoEnd = icoStart + 35 days;\n    }\n\n    function updateWalletForFunds(address _wallet) public onlyOwner {\n        wallet = _wallet;\n    }\n\n    // -----------------------------------------\n    // Crowdsale external interface\n    // -----------------------------------------\n\n    /**\n   * @dev fallback function \n   */\n    function ()external payable {\n        buyTokens(msg.sender);\n    }\n\n    /**\n   * @dev low level token purchase ***DO NOT OVERRIDE***\n   * @param _beneficiary Address performing the token purchase\n   */\n    function buyTokens(address _beneficiary)public payable {\n\n        uint256 weiAmount = msg.value;\n        _preValidatePurchase(_beneficiary, weiAmount);\n\n        // calculate token amount to be created\n        uint256 tokens = _getTokenAmount(weiAmount);\n        require(icoTokenSaleLimit>=tokens);\n        // update state\n        weiRaised = weiRaised.add(weiAmount);\n\n        _processPurchase(_beneficiary, tokens);\n        icoTokenSaleLimit = icoTokenSaleLimit.sub(tokens);\n        emit TokenPurchase(msg.sender,_beneficiary, weiAmount, tokens);\n\n        _forwardFunds();\n    }\n\n    // -----------------------------------------\n    // Internal interface (extensible)\n    // -----------------------------------------\n\n    /**\n   * @dev Validation of an incoming purchase. Use require statements to revert state when conditions are not met. Use super to concatenate validations.\n   * @param _beneficiary Address performing the token purchase\n   * @param _weiAmount Value in wei involved in the purchase\n   */\n    function _preValidatePurchase(address _beneficiary, uint256 _weiAmount)internal view {\n        require(block.timestamp >= preICOPrimaryStart);\n        require(block.timestamp <= icoEnd);\n        require(_beneficiary != address(0));\n        require(_weiAmount != 0);\n    }\n\n\n    /**\n   * @dev Source of tokens. Override this method to modify the way in which the crowdsale ultimately gets and sends its tokens.\n   * @param _to Address performing the token purchase\n   * @param _value Number of tokens to be emitted\n   */\n    function _holdTokens(address _to, uint256 _value)internal {\n        require(_to != address(0));\n        holdBalances[_to] = holdBalances[_to].add(_value);\n    }\n\n    /**\n   * @dev Executed when a purchase has been validated and is ready to be executed. Not necessarily emits/sends tokens.\n   * @param _beneficiary Address receiving the tokens\n   * @param _tokenAmount Number of tokens to be purchased\n   */\n    function _processPurchase(address _beneficiary, uint256 _tokenAmount)internal {\n        _holdTokens(_beneficiary, _tokenAmount);\n    }\n\n\n    /**\n   * @dev Override to extend the way in which ether is converted to tokens.\n   * @param _weiAmount Value in wei to be converted into tokens\n   * @return Number of tokens that can be purchased with the specified _weiAmount\n   */\n    function _getTokenAmount(uint256 _weiAmount)internal view returns(uint256) {\n        if(block.timestamp<preICOSecondaryStart){\n            uint256 rate = uint256(1 ether) / preICOPrimaryTokenPerETH;\n            return (_weiAmount.mul(10 ** decimals)).div(rate);\n        }else if(block.timestamp<icoStart){\n            rate = uint256(1 ether) / preICOSecondaryTokenPerETH;\n            return (_weiAmount.mul(10 ** decimals)).div(rate);\n        }else{\n             rate = uint256(1 ether) / icoStartTokenPerETH;\n            return (_weiAmount.mul(10 ** decimals)).div(rate);\n        }\n    }\n\n    /**\n   * @dev Determines how ETH is stored/forwarded on purchases.\n   */\n    function _forwardFunds()internal {\n        wallet.transfer(msg.value);\n    }\n}",
  "sourcePath": "/Users/mac/Desktop/Projects/ICOS/Delta/contracts/DeltaCrowdSale.sol",
  "compiler": {
    "name": "solc",
    "version": "0.4.24+commit.e67f0147.Emscripten.clang"
  },
  "schemaVersion": "2.0.0",
  "updatedAt": "2018-06-12T10:53:41.780Z"
}