{
  "contractName": "DeltaDistribution",
  "abi": [
    {
      "constant": false,
      "inputs": [
        {
          "name": "_tokenAddr",
          "type": "address"
        },
        {
          "name": "dests",
          "type": "address[]"
        },
        {
          "name": "values",
          "type": "uint256[]"
        }
      ],
      "name": "multisend",
      "outputs": [
        {
          "name": "",
          "type": "uint256"
        }
      ],
      "payable": false,
      "stateMutability": "nonpayable",
      "type": "function"
    }
  ],
  "bytecode": "0x608060405234801561001057600080fd5b50610283806100206000396000f300608060405260043610610041576000357c0100000000000000000000000000000000000000000000000000000000900463ffffffff168063ad8733ca14610046575b600080fd5b34801561005257600080fd5b5061010d600480360381019080803573ffffffffffffffffffffffffffffffffffffffff1690602001909291908035906020019082018035906020019080806020026020016040519081016040528093929190818152602001838360200280828437820191505050505050919291929080359060200190820180359060200190808060200260200160405190810160405280939291908181526020018383602002808284378201915050505050509192919290505050610123565b6040518082815260200191505060405180910390f35b600080600090505b835181101561024c578473ffffffffffffffffffffffffffffffffffffffff1663a9059cbb858381518110151561015e57fe5b90602001906020020151858481518110151561017657fe5b906020019060200201516040518363ffffffff167c0100000000000000000000000000000000000000000000000000000000028152600401808373ffffffffffffffffffffffffffffffffffffffff1673ffffffffffffffffffffffffffffffffffffffff16815260200182815260200192505050602060405180830381600087803b15801561020557600080fd5b505af1158015610219573d6000803e3d6000fd5b505050506040513d602081101561022f57600080fd5b81019080805190602001909291905050505060018101905061012b565b8091505093925050505600a165627a7a723058205f9076500b137f88de9ae5a5ede1544aa497172d27a42bb2f9bc1b00a43035740029",
  "source": "pragma solidity ^ 0.4 .24;\n\nimport \"./ERC20.sol\";\n\ncontract DeltaDistribution {\n\n    function multisend(address _tokenAddr, address[] dests, uint256[] values) returns(\n        uint256\n    ) {\n        uint256 i = 0;\n        while (i < dests.length) {\n            ERC20(_tokenAddr).transfer(dests[i], values[i]);\n            i += 1;\n        }\n        return (i);\n    }\n}",
  "sourcePath": "/Users/mac/Desktop/Projects/ICOS/untitled folder/ICOS/ICOS/Delta/contracts/DeltaDistribution.sol",
  "compiler": {
    "name": "solc",
    "version": "0.4.24+commit.e67f0147.Emscripten.clang"
  },
  "schemaVersion": "2.0.0",
  "updatedAt": "2018-06-26T16:37:11.880Z"
}