{
  "contractName": "DeltaToken",
  "abi": [
    {
      "constant": true,
      "inputs": [],
      "name": "teamTokensReleasePhase2",
      "outputs": [
        {
          "name": "",
          "type": "uint256"
        }
      ],
      "payable": false,
      "stateMutability": "view",
      "type": "function"
    },
    {
      "constant": true,
      "inputs": [],
      "name": "name",
      "outputs": [
        {
          "name": "",
          "type": "string"
        }
      ],
      "payable": false,
      "stateMutability": "view",
      "type": "function"
    },
    {
      "constant": true,
      "inputs": [],
      "name": "ecosystemTokenAddress",
      "outputs": [
        {
          "name": "",
          "type": "address"
        }
      ],
      "payable": false,
      "stateMutability": "view",
      "type": "function"
    },
    {
      "constant": true,
      "inputs": [],
      "name": "marketingTokensAddress",
      "outputs": [
        {
          "name": "",
          "type": "address"
        }
      ],
      "payable": false,
      "stateMutability": "view",
      "type": "function"
    },
    {
      "constant": true,
      "inputs": [],
      "name": "totalSupply",
      "outputs": [
        {
          "name": "",
          "type": "uint256"
        }
      ],
      "payable": false,
      "stateMutability": "view",
      "type": "function"
    },
    {
      "constant": true,
      "inputs": [],
      "name": "teamTokensWithdrawl",
      "outputs": [
        {
          "name": "",
          "type": "uint256"
        }
      ],
      "payable": false,
      "stateMutability": "view",
      "type": "function"
    },
    {
      "constant": true,
      "inputs": [],
      "name": "advisorTokensWithdrawl",
      "outputs": [
        {
          "name": "",
          "type": "uint256"
        }
      ],
      "payable": false,
      "stateMutability": "view",
      "type": "function"
    },
    {
      "constant": true,
      "inputs": [],
      "name": "teamTokensReleasePhase1",
      "outputs": [
        {
          "name": "",
          "type": "uint256"
        }
      ],
      "payable": false,
      "stateMutability": "view",
      "type": "function"
    },
    {
      "constant": true,
      "inputs": [],
      "name": "partnerTokenReleasePhase1",
      "outputs": [
        {
          "name": "",
          "type": "uint256"
        }
      ],
      "payable": false,
      "stateMutability": "view",
      "type": "function"
    },
    {
      "constant": true,
      "inputs": [],
      "name": "decimals",
      "outputs": [
        {
          "name": "",
          "type": "uint256"
        }
      ],
      "payable": false,
      "stateMutability": "view",
      "type": "function"
    },
    {
      "constant": true,
      "inputs": [],
      "name": "teamTokensReleasePhase3",
      "outputs": [
        {
          "name": "",
          "type": "uint256"
        }
      ],
      "payable": false,
      "stateMutability": "view",
      "type": "function"
    },
    {
      "constant": false,
      "inputs": [],
      "name": "unpause",
      "outputs": [],
      "payable": false,
      "stateMutability": "nonpayable",
      "type": "function"
    },
    {
      "constant": true,
      "inputs": [],
      "name": "teamMaxTokensPhase1",
      "outputs": [
        {
          "name": "",
          "type": "uint256"
        }
      ],
      "payable": false,
      "stateMutability": "view",
      "type": "function"
    },
    {
      "constant": true,
      "inputs": [],
      "name": "paused",
      "outputs": [
        {
          "name": "",
          "type": "bool"
        }
      ],
      "payable": false,
      "stateMutability": "view",
      "type": "function"
    },
    {
      "constant": true,
      "inputs": [
        {
          "name": "_owner",
          "type": "address"
        }
      ],
      "name": "balanceOf",
      "outputs": [
        {
          "name": "",
          "type": "uint256"
        }
      ],
      "payable": false,
      "stateMutability": "view",
      "type": "function"
    },
    {
      "constant": true,
      "inputs": [
        {
          "name": "",
          "type": "address"
        }
      ],
      "name": "privateSaleAddresses",
      "outputs": [
        {
          "name": "",
          "type": "uint256"
        }
      ],
      "payable": false,
      "stateMutability": "view",
      "type": "function"
    },
    {
      "constant": false,
      "inputs": [],
      "name": "renounceOwnership",
      "outputs": [],
      "payable": false,
      "stateMutability": "nonpayable",
      "type": "function"
    },
    {
      "constant": true,
      "inputs": [],
      "name": "teamTokensAddress",
      "outputs": [
        {
          "name": "",
          "type": "address"
        }
      ],
      "payable": false,
      "stateMutability": "view",
      "type": "function"
    },
    {
      "constant": true,
      "inputs": [],
      "name": "partnerTokensAddress",
      "outputs": [
        {
          "name": "",
          "type": "address"
        }
      ],
      "payable": false,
      "stateMutability": "view",
      "type": "function"
    },
    {
      "constant": false,
      "inputs": [],
      "name": "pause",
      "outputs": [],
      "payable": false,
      "stateMutability": "nonpayable",
      "type": "function"
    },
    {
      "constant": true,
      "inputs": [],
      "name": "owner",
      "outputs": [
        {
          "name": "",
          "type": "address"
        }
      ],
      "payable": false,
      "stateMutability": "view",
      "type": "function"
    },
    {
      "constant": true,
      "inputs": [],
      "name": "symbol",
      "outputs": [
        {
          "name": "",
          "type": "string"
        }
      ],
      "payable": false,
      "stateMutability": "view",
      "type": "function"
    },
    {
      "constant": true,
      "inputs": [],
      "name": "partnerTokensWithdrawl",
      "outputs": [
        {
          "name": "",
          "type": "uint256"
        }
      ],
      "payable": false,
      "stateMutability": "view",
      "type": "function"
    },
    {
      "constant": true,
      "inputs": [],
      "name": "reserveTokenReleasePhase",
      "outputs": [
        {
          "name": "",
          "type": "uint256"
        }
      ],
      "payable": false,
      "stateMutability": "view",
      "type": "function"
    },
    {
      "constant": true,
      "inputs": [],
      "name": "partnerMaxTokensPhase2",
      "outputs": [
        {
          "name": "",
          "type": "uint256"
        }
      ],
      "payable": false,
      "stateMutability": "view",
      "type": "function"
    },
    {
      "constant": true,
      "inputs": [],
      "name": "privateSaleLockTime",
      "outputs": [
        {
          "name": "",
          "type": "uint256"
        }
      ],
      "payable": false,
      "stateMutability": "view",
      "type": "function"
    },
    {
      "constant": true,
      "inputs": [],
      "name": "state",
      "outputs": [
        {
          "name": "",
          "type": "uint8"
        }
      ],
      "payable": false,
      "stateMutability": "view",
      "type": "function"
    },
    {
      "constant": true,
      "inputs": [],
      "name": "teamMaxTokensPhase2",
      "outputs": [
        {
          "name": "",
          "type": "uint256"
        }
      ],
      "payable": false,
      "stateMutability": "view",
      "type": "function"
    },
    {
      "constant": true,
      "inputs": [],
      "name": "advisorsTokensAddress",
      "outputs": [
        {
          "name": "",
          "type": "address"
        }
      ],
      "payable": false,
      "stateMutability": "view",
      "type": "function"
    },
    {
      "constant": true,
      "inputs": [
        {
          "name": "_owner",
          "type": "address"
        },
        {
          "name": "_spender",
          "type": "address"
        }
      ],
      "name": "allowance",
      "outputs": [
        {
          "name": "",
          "type": "uint256"
        }
      ],
      "payable": false,
      "stateMutability": "view",
      "type": "function"
    },
    {
      "constant": true,
      "inputs": [],
      "name": "partnerMaxTokensPhase1",
      "outputs": [
        {
          "name": "",
          "type": "uint256"
        }
      ],
      "payable": false,
      "stateMutability": "view",
      "type": "function"
    },
    {
      "constant": true,
      "inputs": [],
      "name": "partnerTokenReleasePhase2",
      "outputs": [
        {
          "name": "",
          "type": "uint256"
        }
      ],
      "payable": false,
      "stateMutability": "view",
      "type": "function"
    },
    {
      "constant": true,
      "inputs": [],
      "name": "reserveTokenAddress",
      "outputs": [
        {
          "name": "",
          "type": "address"
        }
      ],
      "payable": false,
      "stateMutability": "view",
      "type": "function"
    },
    {
      "constant": false,
      "inputs": [
        {
          "name": "newOwner",
          "type": "address"
        }
      ],
      "name": "transferOwnership",
      "outputs": [],
      "payable": false,
      "stateMutability": "nonpayable",
      "type": "function"
    },
    {
      "constant": true,
      "inputs": [],
      "name": "teamMaxTokensPhase3",
      "outputs": [
        {
          "name": "",
          "type": "uint256"
        }
      ],
      "payable": false,
      "stateMutability": "view",
      "type": "function"
    },
    {
      "inputs": [],
      "payable": false,
      "stateMutability": "nonpayable",
      "type": "constructor"
    },
    {
      "payable": true,
      "stateMutability": "payable",
      "type": "fallback"
    },
    {
      "anonymous": false,
      "inputs": [],
      "name": "Closed",
      "type": "event"
    },
    {
      "anonymous": false,
      "inputs": [
        {
          "indexed": true,
          "name": "owner",
          "type": "address"
        },
        {
          "indexed": true,
          "name": "spender",
          "type": "address"
        },
        {
          "indexed": false,
          "name": "value",
          "type": "uint256"
        }
      ],
      "name": "Approval",
      "type": "event"
    },
    {
      "anonymous": false,
      "inputs": [
        {
          "indexed": true,
          "name": "from",
          "type": "address"
        },
        {
          "indexed": true,
          "name": "to",
          "type": "address"
        },
        {
          "indexed": false,
          "name": "value",
          "type": "uint256"
        }
      ],
      "name": "Transfer",
      "type": "event"
    },
    {
      "anonymous": false,
      "inputs": [],
      "name": "Pause",
      "type": "event"
    },
    {
      "anonymous": false,
      "inputs": [],
      "name": "Unpause",
      "type": "event"
    },
    {
      "anonymous": false,
      "inputs": [
        {
          "indexed": true,
          "name": "previousOwner",
          "type": "address"
        }
      ],
      "name": "OwnershipRenounced",
      "type": "event"
    },
    {
      "anonymous": false,
      "inputs": [
        {
          "indexed": true,
          "name": "previousOwner",
          "type": "address"
        },
        {
          "indexed": true,
          "name": "newOwner",
          "type": "address"
        }
      ],
      "name": "OwnershipTransferred",
      "type": "event"
    },
    {
      "constant": false,
      "inputs": [],
      "name": "close",
      "outputs": [],
      "payable": false,
      "stateMutability": "nonpayable",
      "type": "function"
    },
    {
      "constant": false,
      "inputs": [
        {
          "name": "_to",
          "type": "address"
        },
        {
          "name": "_value",
          "type": "uint256"
        }
      ],
      "name": "privateSale",
      "outputs": [],
      "payable": false,
      "stateMutability": "nonpayable",
      "type": "function"
    },
    {
      "constant": false,
      "inputs": [
        {
          "name": "_to",
          "type": "address"
        },
        {
          "name": "_value",
          "type": "uint256"
        }
      ],
      "name": "transfer",
      "outputs": [
        {
          "name": "",
          "type": "bool"
        }
      ],
      "payable": false,
      "stateMutability": "nonpayable",
      "type": "function"
    },
    {
      "constant": false,
      "inputs": [
        {
          "name": "_from",
          "type": "address"
        },
        {
          "name": "_to",
          "type": "address"
        },
        {
          "name": "_value",
          "type": "uint256"
        }
      ],
      "name": "transferFrom",
      "outputs": [
        {
          "name": "",
          "type": "bool"
        }
      ],
      "payable": false,
      "stateMutability": "nonpayable",
      "type": "function"
    },
    {
      "constant": false,
      "inputs": [
        {
          "name": "_spender",
          "type": "address"
        },
        {
          "name": "_value",
          "type": "uint256"
        }
      ],
      "name": "approve",
      "outputs": [
        {
          "name": "",
          "type": "bool"
        }
      ],
      "payable": false,
      "stateMutability": "nonpayable",
      "type": "function"
    },
    {
      "constant": false,
      "inputs": [
        {
          "name": "_spender",
          "type": "address"
        },
        {
          "name": "_addedValue",
          "type": "uint256"
        }
      ],
      "name": "increaseApproval",
      "outputs": [
        {
          "name": "",
          "type": "bool"
        }
      ],
      "payable": false,
      "stateMutability": "nonpayable",
      "type": "function"
    },
    {
      "constant": false,
      "inputs": [
        {
          "name": "_spender",
          "type": "address"
        },
        {
          "name": "_subtractedValue",
          "type": "uint256"
        }
      ],
      "name": "decreaseApproval",
      "outputs": [
        {
          "name": "",
          "type": "bool"
        }
      ],
      "payable": false,
      "stateMutability": "nonpayable",
      "type": "function"
    }
  ],
  "bytecode": "0x608060405260008060146101000a81548160ff0219169083151502179055503480156200002b57600080fd5b50336000806101000a81548173ffffffffffffffffffffffffffffffffffffffff021916908373ffffffffffffffffffffffffffffffffffffffff1602179055506b204fce5e3e25026110000000600281905550733b4bad4e80da522b41820b5cc0531cead4631b55600460006101000a81548173ffffffffffffffffffffffffffffffffffffffff021916908373ffffffffffffffffffffffffffffffffffffffff160217905550736163f86bdde5c25187497a8a1c5f21b3d8ca8a31600660006101000a81548173ffffffffffffffffffffffffffffffffffffffff021916908373ffffffffffffffffffffffffffffffffffffffff160217905550734e1650f1df1c8e257ee2d672cbe60aa7a7c76214600560006101000a81548173ffffffffffffffffffffffffffffffffffffffff021916908373ffffffffffffffffffffffffffffffffffffffff160217905550737a374cc5fdf66ba41bc77ca98ceacc5c3d7507d5600760006101000a81548173ffffffffffffffffffffffffffffffffffffffff021916908373ffffffffffffffffffffffffffffffffffffffff16021790555073ee8ac1734519f00253ca5dd9eccdc2caecadf9cc600860006101000a81548173ffffffffffffffffffffffffffffffffffffffff021916908373ffffffffffffffffffffffffffffffffffffffff1602179055507394e5fa1038e57ab1ba1e2f76666007f615ab1a64600960006101000a81548173ffffffffffffffffffffffffffffffffffffffff021916908373ffffffffffffffffffffffffffffffffffffffff1602179055506b0cecb8f27f4200f3a0000000600160008060009054906101000a900473ffffffffffffffffffffffffffffffffffffffff1673ffffffffffffffffffffffffffffffffffffffff1673ffffffffffffffffffffffffffffffffffffffff168152602001908152602001600020819055506b04d8c55aefb8c05b5c00000060016000600460009054906101000a900473ffffffffffffffffffffffffffffffffffffffff1673ffffffffffffffffffffffffffffffffffffffff1673ffffffffffffffffffffffffffffffffffffffff168152602001908152602001600020819055506b014adf4b7320334b9000000060016000600660009054906101000a900473ffffffffffffffffffffffffffffffffffffffff1673ffffffffffffffffffffffffffffffffffffffff1673ffffffffffffffffffffffffffffffffffffffff168152602001908152602001600020819055506b01f04ef12cb04cf15800000060016000600560009054906101000a900473ffffffffffffffffffffffffffffffffffffffff1673ffffffffffffffffffffffffffffffffffffffff1673ffffffffffffffffffffffffffffffffffffffff168152602001908152602001600020819055506b04d8c55aefb8c05b5c00000060016000600760009054906101000a900473ffffffffffffffffffffffffffffffffffffffff1673ffffffffffffffffffffffffffffffffffffffff1673ffffffffffffffffffffffffffffffffffffffff168152602001908152602001600020819055506b033b2e3c9fd0803ce800000060016000600860009054906101000a900473ffffffffffffffffffffffffffffffffffffffff1673ffffffffffffffffffffffffffffffffffffffff1673ffffffffffffffffffffffffffffffffffffffff168152602001908152602001600020819055506b033b2e3c9fd0803ce800000060016000600960009054906101000a900473ffffffffffffffffffffffffffffffffffffffff1673ffffffffffffffffffffffffffffffffffffffff1673ffffffffffffffffffffffffffffffffffffffff168152602001908152602001600020819055506000809054906101000a900473ffffffffffffffffffffffffffffffffffffffff1673ffffffffffffffffffffffffffffffffffffffff16600073ffffffffffffffffffffffffffffffffffffffff167fddf252ad1be2c89b69c2b068fc378daa952ba7f163c4a11628f55a4df523b3ef600160008060009054906101000a900473ffffffffffffffffffffffffffffffffffffffff1673ffffffffffffffffffffffffffffffffffffffff1673ffffffffffffffffffffffffffffffffffffffff168152602001908152602001600020546040518082815260200191505060405180910390a3600460009054906101000a900473ffffffffffffffffffffffffffffffffffffffff1673ffffffffffffffffffffffffffffffffffffffff16600073ffffffffffffffffffffffffffffffffffffffff167fddf252ad1be2c89b69c2b068fc378daa952ba7f163c4a11628f55a4df523b3ef60016000600460009054906101000a900473ffffffffffffffffffffffffffffffffffffffff1673ffffffffffffffffffffffffffffffffffffffff1673ffffffffffffffffffffffffffffffffffffffff168152602001908152602001600020546040518082815260200191505060405180910390a3600660009054906101000a900473ffffffffffffffffffffffffffffffffffffffff1673ffffffffffffffffffffffffffffffffffffffff16600073ffffffffffffffffffffffffffffffffffffffff167fddf252ad1be2c89b69c2b068fc378daa952ba7f163c4a11628f55a4df523b3ef60016000600660009054906101000a900473ffffffffffffffffffffffffffffffffffffffff1673ffffffffffffffffffffffffffffffffffffffff1673ffffffffffffffffffffffffffffffffffffffff168152602001908152602001600020546040518082815260200191505060405180910390a3600560009054906101000a900473ffffffffffffffffffffffffffffffffffffffff1673ffffffffffffffffffffffffffffffffffffffff16600073ffffffffffffffffffffffffffffffffffffffff167fddf252ad1be2c89b69c2b068fc378daa952ba7f163c4a11628f55a4df523b3ef60016000600560009054906101000a900473ffffffffffffffffffffffffffffffffffffffff1673ffffffffffffffffffffffffffffffffffffffff1673ffffffffffffffffffffffffffffffffffffffff168152602001908152602001600020546040518082815260200191505060405180910390a3600760009054906101000a900473ffffffffffffffffffffffffffffffffffffffff1673ffffffffffffffffffffffffffffffffffffffff16600073ffffffffffffffffffffffffffffffffffffffff167fddf252ad1be2c89b69c2b068fc378daa952ba7f163c4a11628f55a4df523b3ef60016000600760009054906101000a900473ffffffffffffffffffffffffffffffffffffffff1673ffffffffffffffffffffffffffffffffffffffff1673ffffffffffffffffffffffffffffffffffffffff168152602001908152602001600020546040518082815260200191505060405180910390a3600860009054906101000a900473ffffffffffffffffffffffffffffffffffffffff1673ffffffffffffffffffffffffffffffffffffffff16600073ffffffffffffffffffffffffffffffffffffffff167fddf252ad1be2c89b69c2b068fc378daa952ba7f163c4a11628f55a4df523b3ef60016000600860009054906101000a900473ffffffffffffffffffffffffffffffffffffffff1673ffffffffffffffffffffffffffffffffffffffff1673ffffffffffffffffffffffffffffffffffffffff168152602001908152602001600020546040518082815260200191505060405180910390a3600960009054906101000a900473ffffffffffffffffffffffffffffffffffffffff1673ffffffffffffffffffffffffffffffffffffffff16600073ffffffffffffffffffffffffffffffffffffffff167fddf252ad1be2c89b69c2b068fc378daa952ba7f163c4a11628f55a4df523b3ef60016000600960009054906101000a900473ffffffffffffffffffffffffffffffffffffffff1673ffffffffffffffffffffffffffffffffffffffff1673ffffffffffffffffffffffffffffffffffffffff168152602001908152602001600020546040518082815260200191505060405180910390a36000601a60006101000a81548160ff0219169083600181111562000c1757fe5b021790555062000ca1600260016000600460009054906101000a900473ffffffffffffffffffffffffffffffffffffffff1673ffffffffffffffffffffffffffffffffffffffff1673ffffffffffffffffffffffffffffffffffffffff1681526020019081526020016000205462000e24640100000000026200339b179091906401000000009004565b600a8190555062000ccd6002600a5462000e24640100000000026200339b179091906401000000009004565b600a5401600b8190555062000cfd6002600a5462000e24640100000000026200339b179091906401000000009004565b600b5401600c8190555062000d8c600260016000600660009054906101000a900473ffffffffffffffffffffffffffffffffffffffff1673ffffffffffffffffffffffffffffffffffffffff1673ffffffffffffffffffffffffffffffffffffffff1681526020019081526020016000205462000e24640100000000026200339b179091906401000000009004565b60158190555062000e1860155460016000600660009054906101000a900473ffffffffffffffffffffffffffffffffffffffff1673ffffffffffffffffffffffffffffffffffffffff1673ffffffffffffffffffffffffffffffffffffffff1681526020019081526020016000205462000e3b6401000000000262002912179091906401000000009004565b60168190555062000e55565b6000818381151562000e3257fe5b04905092915050565b600082821115151562000e4a57fe5b818303905092915050565b6133dd8062000e656000396000f300608060405260043610610204576000357c0100000000000000000000000000000000000000000000000000000000900463ffffffff168063039be6da1461020957806306fdde0314610234578063095ea7b3146102c4578063149929b3146103295780631645cd7d1461038057806318160ddd146103d75780631e3169a214610402578063203707a81461042d5780632130d3b01461045857806321d43d8f1461048357806323b872dd146104ae578063313ce567146105335780633b61f4661461055e5780633f4ba83a1461058957806343d726d6146105a057806355d27ada146105b75780635c975abb146105e2578063661884631461061157806370a082311461067657806370e1d1f7146106cd578063715018a6146107245780637b0de0151461073b5780638430351e146107925780638456cb59146107e95780638da5cb5b1461080057806395d89b411461085757806399fba3f7146108e7578063a9059cbb14610912578063c048f7d814610977578063c0f524f0146109a2578063c10469ef146109cd578063c19d93fb146109f8578063cbfa57d914610a31578063d20f502914610a5c578063d50a3d2c14610ab3578063d73dd62314610b00578063dd62ed3e14610b65578063e2a6b69514610bdc578063e6e956d314610c07578063ee1ea4ff14610c32578063f2fde38b14610c89578063fd4b6a8a14610ccc575b600080fd5b34801561021557600080fd5b5061021e610cf7565b6040518082815260200191505060405180910390f35b34801561024057600080fd5b50610249610cfd565b6040518080602001828103825283818151815260200191508051906020019080838360005b8381101561028957808201518184015260208101905061026e565b50505050905090810190601f1680156102b65780820380516001836020036101000a031916815260200191505b509250505060405180910390f35b3480156102d057600080fd5b5061030f600480360381019080803573ffffffffffffffffffffffffffffffffffffffff16906020019092919080359060200190929190505050610d36565b604051808215151515815260200191505060405180910390f35b34801561033557600080fd5b5061033e6111b5565b604051808273ffffffffffffffffffffffffffffffffffffffff1673ffffffffffffffffffffffffffffffffffffffff16815260200191505060405180910390f35b34801561038c57600080fd5b506103956111db565b604051808273ffffffffffffffffffffffffffffffffffffffff1673ffffffffffffffffffffffffffffffffffffffff16815260200191505060405180910390f35b3480156103e357600080fd5b506103ec611201565b6040518082815260200191505060405180910390f35b34801561040e57600080fd5b5061041761120b565b6040518082815260200191505060405180910390f35b34801561043957600080fd5b50610442611211565b6040518082815260200191505060405180910390f35b34801561046457600080fd5b5061046d611217565b6040518082815260200191505060405180910390f35b34801561048f57600080fd5b5061049861121d565b6040518082815260200191505060405180910390f35b3480156104ba57600080fd5b50610519600480360381019080803573ffffffffffffffffffffffffffffffffffffffff169060200190929190803573ffffffffffffffffffffffffffffffffffffffff16906020019092919080359060200190929190505050611223565b604051808215151515815260200191505060405180910390f35b34801561053f57600080fd5b506105486116ac565b6040518082815260200191505060405180910390f35b34801561056a57600080fd5b506105736116b1565b6040518082815260200191505060405180910390f35b34801561059557600080fd5b5061059e6116b7565b005b3480156105ac57600080fd5b506105b5611775565b005b3480156105c357600080fd5b506105cc6118a3565b6040518082815260200191505060405180910390f35b3480156105ee57600080fd5b506105f76118a9565b604051808215151515815260200191505060405180910390f35b34801561061d57600080fd5b5061065c600480360381019080803573ffffffffffffffffffffffffffffffffffffffff169060200190929190803590602001909291905050506118bc565b604051808215151515815260200191505060405180910390f35b34801561068257600080fd5b506106b7600480360381019080803573ffffffffffffffffffffffffffffffffffffffff1690602001909291905050506118cf565b6040518082815260200191505060405180910390f35b3480156106d957600080fd5b5061070e600480360381019080803573ffffffffffffffffffffffffffffffffffffffff169060200190929190505050611918565b6040518082815260200191505060405180910390f35b34801561073057600080fd5b50610739611930565b005b34801561074757600080fd5b50610750611a32565b604051808273ffffffffffffffffffffffffffffffffffffffff1673ffffffffffffffffffffffffffffffffffffffff16815260200191505060405180910390f35b34801561079e57600080fd5b506107a7611a58565b604051808273ffffffffffffffffffffffffffffffffffffffff1673ffffffffffffffffffffffffffffffffffffffff16815260200191505060405180910390f35b3480156107f557600080fd5b506107fe611a7e565b005b34801561080c57600080fd5b50610815611b3e565b604051808273ffffffffffffffffffffffffffffffffffffffff1673ffffffffffffffffffffffffffffffffffffffff16815260200191505060405180910390f35b34801561086357600080fd5b5061086c611b63565b6040518080602001828103825283818151815260200191508051906020019080838360005b838110156108ac578082015181840152602081019050610891565b50505050905090810190601f1680156108d95780820380516001836020036101000a031916815260200191505b509250505060405180910390f35b3480156108f357600080fd5b506108fc611b9c565b6040518082815260200191505060405180910390f35b34801561091e57600080fd5b5061095d600480360381019080803573ffffffffffffffffffffffffffffffffffffffff16906020019092919080359060200190929190505050611ba2565b604051808215151515815260200191505060405180910390f35b34801561098357600080fd5b5061098c612021565b6040518082815260200191505060405180910390f35b3480156109ae57600080fd5b506109b7612027565b6040518082815260200191505060405180910390f35b3480156109d957600080fd5b506109e261202d565b6040518082815260200191505060405180910390f35b348015610a0457600080fd5b50610a0d612033565b60405180826001811115610a1d57fe5b60ff16815260200191505060405180910390f35b348015610a3d57600080fd5b50610a46612046565b6040518082815260200191505060405180910390f35b348015610a6857600080fd5b50610a7161204c565b604051808273ffffffffffffffffffffffffffffffffffffffff1673ffffffffffffffffffffffffffffffffffffffff16815260200191505060405180910390f35b348015610abf57600080fd5b50610afe600480360381019080803573ffffffffffffffffffffffffffffffffffffffff16906020019092919080359060200190929190505050612072565b005b348015610b0c57600080fd5b50610b4b600480360381019080803573ffffffffffffffffffffffffffffffffffffffff16906020019092919080359060200190929190505050612171565b604051808215151515815260200191505060405180910390f35b348015610b7157600080fd5b50610bc6600480360381019080803573ffffffffffffffffffffffffffffffffffffffff169060200190929190803573ffffffffffffffffffffffffffffffffffffffff1690602001909291905050506125f0565b6040518082815260200191505060405180910390f35b348015610be857600080fd5b50610bf1612677565b6040518082815260200191505060405180910390f35b348015610c1357600080fd5b50610c1c61267d565b6040518082815260200191505060405180910390f35b348015610c3e57600080fd5b50610c47612683565b604051808273ffffffffffffffffffffffffffffffffffffffff1673ffffffffffffffffffffffffffffffffffffffff16815260200191505060405180910390f35b348015610c9557600080fd5b50610cca600480360381019080803573ffffffffffffffffffffffffffffffffffffffff1690602001909291905050506126a9565b005b348015610cd857600080fd5b50610ce16127fe565b6040518082815260200191505060405180910390f35b600e5481565b6040805190810160405280600481526020017f44654c410000000000000000000000000000000000000000000000000000000081525081565b6000816000806000429250600460009054906101000a900473ffffffffffffffffffffffffffffffffffffffff1673ffffffffffffffffffffffffffffffffffffffff163373ffffffffffffffffffffffffffffffffffffffff161415610ea157600180811115610da357fe5b601a60009054906101000a900460ff166001811115610dbe57fe5b141515610dca57600080fd5b600d548310151515610ddb57600080fd5b600e54831015610e3557600a54610dfd8560105461280490919063ffffffff16565b11151515610e0a57600080fd5b610e1f8460105461280490919063ffffffff16565b601081905550610e2f8787612820565b50610e9c565b600f54831015610e8f57600b54610e578560105461280490919063ffffffff16565b11151515610e6457600080fd5b610e798460105461280490919063ffffffff16565b601081905550610e898787612820565b50610e9b565b610e998787612820565b505b5b6111ab565b600660009054906101000a900473ffffffffffffffffffffffffffffffffffffffff1673ffffffffffffffffffffffffffffffffffffffff163373ffffffffffffffffffffffffffffffffffffffff161415610fa657600180811115610f0357fe5b601a60009054906101000a900460ff166001811115610f1e57fe5b141515610f2a57600080fd5b6011548310151515610f3b57600080fd5b601254831015610f9557601554610f5d8560135461280490919063ffffffff16565b11151515610f6a57600080fd5b610f7f8460135461280490919063ffffffff16565b601381905550610f8f8787612820565b50610fa1565b610f9f8787612820565b505b6111aa565b600960009054906101000a900473ffffffffffffffffffffffffffffffffffffffff1673ffffffffffffffffffffffffffffffffffffffff163373ffffffffffffffffffffffffffffffffffffffff1614156110505760018081111561100857fe5b601a60009054906101000a900460ff16600181111561102357fe5b14151561102f57600080fd5b601754831015151561104057600080fd5b61104a8787612820565b506111a9565b6000601860003373ffffffffffffffffffffffffffffffffffffffff1673ffffffffffffffffffffffffffffffffffffffff16815260200190815260200160002054111561119c576001808111156110a457fe5b601a60009054906101000a900460ff1660018111156110bf57fe5b1415156110cb57600080fd5b601860003373ffffffffffffffffffffffffffffffffffffffff1673ffffffffffffffffffffffffffffffffffffffff168152602001908152602001600020549150600160003373ffffffffffffffffffffffffffffffffffffffff1673ffffffffffffffffffffffffffffffffffffffff16815260200190815260200160002054905081611163858361291290919063ffffffff16565b10151561117a576111748787612820565b50611197565b601954831015151561118b57600080fd5b6111958787612820565b505b6111a8565b6111a68787612820565b505b5b5b5b5050505092915050565b600860009054906101000a900473ffffffffffffffffffffffffffffffffffffffff1681565b600760009054906101000a900473ffffffffffffffffffffffffffffffffffffffff1681565b6000600254905090565b60105481565b60145481565b600d5481565b60115481565b6000816000806000429250600460009054906101000a900473ffffffffffffffffffffffffffffffffffffffff1673ffffffffffffffffffffffffffffffffffffffff163373ffffffffffffffffffffffffffffffffffffffff1614156113915760018081111561129057fe5b601a60009054906101000a900460ff1660018111156112ab57fe5b1415156112b757600080fd5b600d5483101515156112c857600080fd5b600e5483101561132357600a546112ea8560105461280490919063ffffffff16565b111515156112f757600080fd5b61130c8460105461280490919063ffffffff16565b60108190555061131d88888861292b565b5061138c565b600f5483101561137e57600b546113458560105461280490919063ffffffff16565b1115151561135257600080fd5b6113678460105461280490919063ffffffff16565b60108190555061137888888861292b565b5061138b565b61138988888861292b565b505b5b6116a1565b600660009054906101000a900473ffffffffffffffffffffffffffffffffffffffff1673ffffffffffffffffffffffffffffffffffffffff163373ffffffffffffffffffffffffffffffffffffffff161415611498576001808111156113f357fe5b601a60009054906101000a900460ff16600181111561140e57fe5b14151561141a57600080fd5b601154831015151561142b57600080fd5b6012548310156114865760155461144d8560135461280490919063ffffffff16565b1115151561145a57600080fd5b61146f8460135461280490919063ffffffff16565b60138190555061148088888861292b565b50611493565b61149188888861292b565b505b6116a0565b600960009054906101000a900473ffffffffffffffffffffffffffffffffffffffff1673ffffffffffffffffffffffffffffffffffffffff163373ffffffffffffffffffffffffffffffffffffffff161415611543576001808111156114fa57fe5b601a60009054906101000a900460ff16600181111561151557fe5b14151561152157600080fd5b601754831015151561153257600080fd5b61153d88888861292b565b5061169f565b6000601860003373ffffffffffffffffffffffffffffffffffffffff1673ffffffffffffffffffffffffffffffffffffffff1681526020019081526020016000205411156116915760018081111561159757fe5b601a60009054906101000a900460ff1660018111156115b257fe5b1415156115be57600080fd5b601860003373ffffffffffffffffffffffffffffffffffffffff1673ffffffffffffffffffffffffffffffffffffffff168152602001908152602001600020549150600160003373ffffffffffffffffffffffffffffffffffffffff1673ffffffffffffffffffffffffffffffffffffffff16815260200190815260200160002054905081611656858361291290919063ffffffff16565b10151561166e5761166888888861292b565b5061168c565b601954831015151561167f57600080fd5b61168a88888861292b565b505b61169e565b61169c88888861292b565b505b5b5b5b505050509392505050565b601281565b600f5481565b6000809054906101000a900473ffffffffffffffffffffffffffffffffffffffff1673ffffffffffffffffffffffffffffffffffffffff163373ffffffffffffffffffffffffffffffffffffffff1614151561171257600080fd5b600060149054906101000a900460ff16151561172d57600080fd5b60008060146101000a81548160ff0219169083151502179055507f7805862f689e2f13df9f062ff482ad3ad112aca9e0847911ed832e158c525b3360405160405180910390a1565b6000809054906101000a900473ffffffffffffffffffffffffffffffffffffffff1673ffffffffffffffffffffffffffffffffffffffff163373ffffffffffffffffffffffffffffffffffffffff161415156117d057600080fd5b600060018111156117dd57fe5b601a60009054906101000a900460ff1660018111156117f857fe5b14151561180457600080fd5b6001601a60006101000a81548160ff0219169083600181111561182357fe5b0217905550635b333f50600d81905550635b3341a8600e81905550635b334400600f81905550635b334658601181905550635b3348b0601281905550635b335468601781905550635b333aa06019819055507f1cdde67b72a90f19919ac732a437ac2f7a10fc128d28c2a6e525d89ce5cd9d3a60405160405180910390a1565b600a5481565b600060149054906101000a900460ff1681565b60006118c88383612cea565b5092915050565b6000600160008373ffffffffffffffffffffffffffffffffffffffff1673ffffffffffffffffffffffffffffffffffffffff168152602001908152602001600020549050919050565b60186020528060005260406000206000915090505481565b6000809054906101000a900473ffffffffffffffffffffffffffffffffffffffff1673ffffffffffffffffffffffffffffffffffffffff163373ffffffffffffffffffffffffffffffffffffffff1614151561198b57600080fd5b6000809054906101000a900473ffffffffffffffffffffffffffffffffffffffff1673ffffffffffffffffffffffffffffffffffffffff167ff8df31144d9c2f0f6b59d69b8b98abd5459d07f2742c4df920b25aae33c6482060405160405180910390a260008060006101000a81548173ffffffffffffffffffffffffffffffffffffffff021916908373ffffffffffffffffffffffffffffffffffffffff160217905550565b600460009054906101000a900473ffffffffffffffffffffffffffffffffffffffff1681565b600660009054906101000a900473ffffffffffffffffffffffffffffffffffffffff1681565b6000809054906101000a900473ffffffffffffffffffffffffffffffffffffffff1673ffffffffffffffffffffffffffffffffffffffff163373ffffffffffffffffffffffffffffffffffffffff16141515611ad957600080fd5b600060149054906101000a900460ff16151515611af557600080fd5b6001600060146101000a81548160ff0219169083151502179055507f6985a02210a168e66602d3235cb6db0e70f92b3ba4d376a33c0f3d9434bff62560405160405180910390a1565b6000809054906101000a900473ffffffffffffffffffffffffffffffffffffffff1681565b6040805190810160405280600481526020017f44654c410000000000000000000000000000000000000000000000000000000081525081565b60135481565b6000816000806000429250600460009054906101000a900473ffffffffffffffffffffffffffffffffffffffff1673ffffffffffffffffffffffffffffffffffffffff163373ffffffffffffffffffffffffffffffffffffffff161415611d0d57600180811115611c0f57fe5b601a60009054906101000a900460ff166001811115611c2a57fe5b141515611c3657600080fd5b600d548310151515611c4757600080fd5b600e54831015611ca157600a54611c698560105461280490919063ffffffff16565b11151515611c7657600080fd5b611c8b8460105461280490919063ffffffff16565b601081905550611c9b8787612f7b565b50611d08565b600f54831015611cfb57600b54611cc38560105461280490919063ffffffff16565b11151515611cd057600080fd5b611ce58460105461280490919063ffffffff16565b601081905550611cf58787612f7b565b50611d07565b611d058787612f7b565b505b5b612017565b600660009054906101000a900473ffffffffffffffffffffffffffffffffffffffff1673ffffffffffffffffffffffffffffffffffffffff163373ffffffffffffffffffffffffffffffffffffffff161415611e1257600180811115611d6f57fe5b601a60009054906101000a900460ff166001811115611d8a57fe5b141515611d9657600080fd5b6011548310151515611da757600080fd5b601254831015611e0157601554611dc98560135461280490919063ffffffff16565b11151515611dd657600080fd5b611deb8460135461280490919063ffffffff16565b601381905550611dfb8787612f7b565b50611e0d565b611e0b8787612f7b565b505b612016565b600960009054906101000a900473ffffffffffffffffffffffffffffffffffffffff1673ffffffffffffffffffffffffffffffffffffffff163373ffffffffffffffffffffffffffffffffffffffff161415611ebc57600180811115611e7457fe5b601a60009054906101000a900460ff166001811115611e8f57fe5b141515611e9b57600080fd5b6017548310151515611eac57600080fd5b611eb68787612f7b565b50612015565b6000601860003373ffffffffffffffffffffffffffffffffffffffff1673ffffffffffffffffffffffffffffffffffffffff16815260200190815260200160002054111561200857600180811115611f1057fe5b601a60009054906101000a900460ff166001811115611f2b57fe5b141515611f3757600080fd5b601860003373ffffffffffffffffffffffffffffffffffffffff1673ffffffffffffffffffffffffffffffffffffffff168152602001908152602001600020549150600160003373ffffffffffffffffffffffffffffffffffffffff1673ffffffffffffffffffffffffffffffffffffffff16815260200190815260200160002054905081611fcf858361291290919063ffffffff16565b101515611fe657611fe08787612f7b565b50612003565b6019548310151515611ff757600080fd5b6120018787612f7b565b505b612014565b6120128787612f7b565b505b5b5b5b5050505092915050565b60175481565b60165481565b60195481565b601a60009054906101000a900460ff1681565b600b5481565b600560009054906101000a900473ffffffffffffffffffffffffffffffffffffffff1681565b6000809054906101000a900473ffffffffffffffffffffffffffffffffffffffff1673ffffffffffffffffffffffffffffffffffffffff163373ffffffffffffffffffffffffffffffffffffffff161415156120cd57600080fd5b6120d78282612f7b565b5061212a81601860008573ffffffffffffffffffffffffffffffffffffffff1673ffffffffffffffffffffffffffffffffffffffff1681526020019081526020016000205461280490919063ffffffff16565b601860008473ffffffffffffffffffffffffffffffffffffffff1673ffffffffffffffffffffffffffffffffffffffff168152602001908152602001600020819055505050565b6000816000806000429250600460009054906101000a900473ffffffffffffffffffffffffffffffffffffffff1673ffffffffffffffffffffffffffffffffffffffff163373ffffffffffffffffffffffffffffffffffffffff1614156122dc576001808111156121de57fe5b601a60009054906101000a900460ff1660018111156121f957fe5b14151561220557600080fd5b600d54831015151561221657600080fd5b600e5483101561227057600a546122388560105461280490919063ffffffff16565b1115151561224557600080fd5b61225a8460105461280490919063ffffffff16565b60108190555061226a878761319f565b506122d7565b600f548310156122ca57600b546122928560105461280490919063ffffffff16565b1115151561229f57600080fd5b6122b48460105461280490919063ffffffff16565b6010819055506122c4878761319f565b506122d6565b6122d4878761319f565b505b5b6125e6565b600660009054906101000a900473ffffffffffffffffffffffffffffffffffffffff1673ffffffffffffffffffffffffffffffffffffffff163373ffffffffffffffffffffffffffffffffffffffff1614156123e15760018081111561233e57fe5b601a60009054906101000a900460ff16600181111561235957fe5b14151561236557600080fd5b601154831015151561237657600080fd5b6012548310156123d0576015546123988560135461280490919063ffffffff16565b111515156123a557600080fd5b6123ba8460135461280490919063ffffffff16565b6013819055506123ca878761319f565b506123dc565b6123da878761319f565b505b6125e5565b600960009054906101000a900473ffffffffffffffffffffffffffffffffffffffff1673ffffffffffffffffffffffffffffffffffffffff163373ffffffffffffffffffffffffffffffffffffffff16141561248b5760018081111561244357fe5b601a60009054906101000a900460ff16600181111561245e57fe5b14151561246a57600080fd5b601754831015151561247b57600080fd5b612485878761319f565b506125e4565b6000601860003373ffffffffffffffffffffffffffffffffffffffff1673ffffffffffffffffffffffffffffffffffffffff1681526020019081526020016000205411156125d7576001808111156124df57fe5b601a60009054906101000a900460ff1660018111156124fa57fe5b14151561250657600080fd5b601860003373ffffffffffffffffffffffffffffffffffffffff1673ffffffffffffffffffffffffffffffffffffffff168152602001908152602001600020549150600160003373ffffffffffffffffffffffffffffffffffffffff1673ffffffffffffffffffffffffffffffffffffffff1681526020019081526020016000205490508161259e858361291290919063ffffffff16565b1015156125b5576125af878761319f565b506125d2565b60195483101515156125c657600080fd5b6125d0878761319f565b505b6125e3565b6125e1878761319f565b505b5b5b5b5050505092915050565b6000600360008473ffffffffffffffffffffffffffffffffffffffff1673ffffffffffffffffffffffffffffffffffffffff16815260200190815260200160002060008373ffffffffffffffffffffffffffffffffffffffff1673ffffffffffffffffffffffffffffffffffffffff16815260200190815260200160002054905092915050565b60155481565b60125481565b600960009054906101000a900473ffffffffffffffffffffffffffffffffffffffff1681565b6000809054906101000a900473ffffffffffffffffffffffffffffffffffffffff1673ffffffffffffffffffffffffffffffffffffffff163373ffffffffffffffffffffffffffffffffffffffff1614151561270457600080fd5b600073ffffffffffffffffffffffffffffffffffffffff168173ffffffffffffffffffffffffffffffffffffffff161415151561274057600080fd5b8073ffffffffffffffffffffffffffffffffffffffff166000809054906101000a900473ffffffffffffffffffffffffffffffffffffffff1673ffffffffffffffffffffffffffffffffffffffff167f8be0079c531659141344cd1fd0a4f28419497f9722a3daafe3b4186f6b6457e060405160405180910390a3806000806101000a81548173ffffffffffffffffffffffffffffffffffffffff021916908373ffffffffffffffffffffffffffffffffffffffff16021790555050565b600c5481565b6000818301905082811015151561281757fe5b80905092915050565b600081600360003373ffffffffffffffffffffffffffffffffffffffff1673ffffffffffffffffffffffffffffffffffffffff16815260200190815260200160002060008573ffffffffffffffffffffffffffffffffffffffff1673ffffffffffffffffffffffffffffffffffffffff168152602001908152602001600020819055508273ffffffffffffffffffffffffffffffffffffffff163373ffffffffffffffffffffffffffffffffffffffff167f8c5be1e5ebec7d5bd14f71427d1e84f3dd0314c0f7b2291e5b200ac8c7c3b925846040518082815260200191505060405180910390a36001905092915050565b600082821115151561292057fe5b818303905092915050565b60008073ffffffffffffffffffffffffffffffffffffffff168373ffffffffffffffffffffffffffffffffffffffff161415151561296857600080fd5b600160008573ffffffffffffffffffffffffffffffffffffffff1673ffffffffffffffffffffffffffffffffffffffff1681526020019081526020016000205482111515156129b657600080fd5b600360008573ffffffffffffffffffffffffffffffffffffffff1673ffffffffffffffffffffffffffffffffffffffff16815260200190815260200160002060003373ffffffffffffffffffffffffffffffffffffffff1673ffffffffffffffffffffffffffffffffffffffff168152602001908152602001600020548211151515612a4157600080fd5b612a9382600160008773ffffffffffffffffffffffffffffffffffffffff1673ffffffffffffffffffffffffffffffffffffffff1681526020019081526020016000205461291290919063ffffffff16565b600160008673ffffffffffffffffffffffffffffffffffffffff1673ffffffffffffffffffffffffffffffffffffffff16815260200190815260200160002081905550612b2882600160008673ffffffffffffffffffffffffffffffffffffffff1673ffffffffffffffffffffffffffffffffffffffff1681526020019081526020016000205461280490919063ffffffff16565b600160008573ffffffffffffffffffffffffffffffffffffffff1673ffffffffffffffffffffffffffffffffffffffff16815260200190815260200160002081905550612bfa82600360008773ffffffffffffffffffffffffffffffffffffffff1673ffffffffffffffffffffffffffffffffffffffff16815260200190815260200160002060003373ffffffffffffffffffffffffffffffffffffffff1673ffffffffffffffffffffffffffffffffffffffff1681526020019081526020016000205461291290919063ffffffff16565b600360008673ffffffffffffffffffffffffffffffffffffffff1673ffffffffffffffffffffffffffffffffffffffff16815260200190815260200160002060003373ffffffffffffffffffffffffffffffffffffffff1673ffffffffffffffffffffffffffffffffffffffff168152602001908152602001600020819055508273ffffffffffffffffffffffffffffffffffffffff168473ffffffffffffffffffffffffffffffffffffffff167fddf252ad1be2c89b69c2b068fc378daa952ba7f163c4a11628f55a4df523b3ef846040518082815260200191505060405180910390a3600190509392505050565b600080600360003373ffffffffffffffffffffffffffffffffffffffff1673ffffffffffffffffffffffffffffffffffffffff16815260200190815260200160002060008573ffffffffffffffffffffffffffffffffffffffff1673ffffffffffffffffffffffffffffffffffffffff16815260200190815260200160002054905080831115612dfb576000600360003373ffffffffffffffffffffffffffffffffffffffff1673ffffffffffffffffffffffffffffffffffffffff16815260200190815260200160002060008673ffffffffffffffffffffffffffffffffffffffff1673ffffffffffffffffffffffffffffffffffffffff16815260200190815260200160002081905550612e8f565b612e0e838261291290919063ffffffff16565b600360003373ffffffffffffffffffffffffffffffffffffffff1673ffffffffffffffffffffffffffffffffffffffff16815260200190815260200160002060008673ffffffffffffffffffffffffffffffffffffffff1673ffffffffffffffffffffffffffffffffffffffff168152602001908152602001600020819055505b8373ffffffffffffffffffffffffffffffffffffffff163373ffffffffffffffffffffffffffffffffffffffff167f8c5be1e5ebec7d5bd14f71427d1e84f3dd0314c0f7b2291e5b200ac8c7c3b925600360003373ffffffffffffffffffffffffffffffffffffffff1673ffffffffffffffffffffffffffffffffffffffff16815260200190815260200160002060008873ffffffffffffffffffffffffffffffffffffffff1673ffffffffffffffffffffffffffffffffffffffff168152602001908152602001600020546040518082815260200191505060405180910390a3600191505092915050565b60008073ffffffffffffffffffffffffffffffffffffffff168373ffffffffffffffffffffffffffffffffffffffff1614151515612fb857600080fd5b600160003373ffffffffffffffffffffffffffffffffffffffff1673ffffffffffffffffffffffffffffffffffffffff16815260200190815260200160002054821115151561300657600080fd5b61305882600160003373ffffffffffffffffffffffffffffffffffffffff1673ffffffffffffffffffffffffffffffffffffffff1681526020019081526020016000205461291290919063ffffffff16565b600160003373ffffffffffffffffffffffffffffffffffffffff1673ffffffffffffffffffffffffffffffffffffffff168152602001908152602001600020819055506130ed82600160008673ffffffffffffffffffffffffffffffffffffffff1673ffffffffffffffffffffffffffffffffffffffff1681526020019081526020016000205461280490919063ffffffff16565b600160008573ffffffffffffffffffffffffffffffffffffffff1673ffffffffffffffffffffffffffffffffffffffff168152602001908152602001600020819055508273ffffffffffffffffffffffffffffffffffffffff163373ffffffffffffffffffffffffffffffffffffffff167fddf252ad1be2c89b69c2b068fc378daa952ba7f163c4a11628f55a4df523b3ef846040518082815260200191505060405180910390a36001905092915050565b600061323082600360003373ffffffffffffffffffffffffffffffffffffffff1673ffffffffffffffffffffffffffffffffffffffff16815260200190815260200160002060008673ffffffffffffffffffffffffffffffffffffffff1673ffffffffffffffffffffffffffffffffffffffff1681526020019081526020016000205461280490919063ffffffff16565b600360003373ffffffffffffffffffffffffffffffffffffffff1673ffffffffffffffffffffffffffffffffffffffff16815260200190815260200160002060008573ffffffffffffffffffffffffffffffffffffffff1673ffffffffffffffffffffffffffffffffffffffff168152602001908152602001600020819055508273ffffffffffffffffffffffffffffffffffffffff163373ffffffffffffffffffffffffffffffffffffffff167f8c5be1e5ebec7d5bd14f71427d1e84f3dd0314c0f7b2291e5b200ac8c7c3b925600360003373ffffffffffffffffffffffffffffffffffffffff1673ffffffffffffffffffffffffffffffffffffffff16815260200190815260200160002060008773ffffffffffffffffffffffffffffffffffffffff1673ffffffffffffffffffffffffffffffffffffffff168152602001908152602001600020546040518082815260200191505060405180910390a36001905092915050565b600081838115156133a857fe5b049050929150505600a165627a7a72305820d1ed4fce63882174c30a929ba4c2157ed149677c164c72d1c62aed3df25388ef0029",
  "source": "pragma solidity ^0.4.23;\n\n\nimport \"./StandardToken.sol\";\n\ncontract DeltaToken  is StandardToken{\n   \n    address public teamTokensAddress;\n    address public advisorsTokensAddress;\n    address public partnerTokensAddress;\n    address public marketingTokensAddress;\n    address public ecosystemTokenAddress;\n    address public reserveTokenAddress;\n\n    uint256 public teamMaxTokensPhase1;\n    uint256 public teamMaxTokensPhase2;\n    uint256 public teamMaxTokensPhase3;\n\n    uint256 public teamTokensReleasePhase1;\n    uint256 public teamTokensReleasePhase2;\n    uint256 public teamTokensReleasePhase3;\n    uint256 public teamTokensWithdrawl;\n\n    uint256 public partnerTokenReleasePhase1;\n    uint256 public partnerTokenReleasePhase2;\n\n\n    uint256 public partnerTokensWithdrawl;\n    uint256 public advisorTokensWithdrawl;\n\n    uint256 public partnerMaxTokensPhase1;\n    uint256 public partnerMaxTokensPhase2;\n\n\n\n    uint256 public reserveTokenReleasePhase;\n\n    string public constant name = \"DeLA\";\n    uint256 public constant decimals = 18;\n    string public constant symbol = \"DeLA\";\n\n    mapping(address=>uint256) public privateSaleAddresses;\n    uint256 public privateSaleLockTime;\n    \n    \n    using SafeMath for uint256;\n    \n     /* ICO status */\n    enum State {\n        Active,\n        Closed\n    }\n\n    event Closed();\n\n    State public state;\n\n    constructor() public {\n        owner = msg.sender;\n        totalSupply_ = 10000000000 ether;  //as decimals is 18 so ether means multiple with 10 ** 18\n        teamTokensAddress = 0x3b4bAD4e80da522B41820b5Cc0531cEAd4631b55; \n        partnerTokensAddress = 0x6163f86BDde5C25187497a8A1c5f21b3d8ca8a31;\n        advisorsTokensAddress = 0x4e1650f1df1C8E257EE2D672CbE60AA7a7c76214; \n        marketingTokensAddress = 0x7A374CC5FDf66bA41bc77ca98cEacc5C3D7507d5;\n        ecosystemTokenAddress = 0xeE8aC1734519f00253ca5dD9eCcDC2cAeCadf9Cc; \n        reserveTokenAddress = 0x94E5FA1038e57aB1Ba1e2f76666007f615aB1A64; \n        balances[owner] = 4000000000 ether;\n        balances[teamTokensAddress] = 1500000000 ether;\n        balances[partnerTokensAddress] = 400000000 ether;\n        balances[advisorsTokensAddress] = 600000000 ether;\n        balances[marketingTokensAddress] = 1500000000 ether;\n        balances[ecosystemTokenAddress] = 1000000000 ether;\n        balances[reserveTokenAddress] = 1000000000 ether;\n\n        emit Transfer(address(0), owner, balances[owner]);\n        emit Transfer(address(0), teamTokensAddress, balances[teamTokensAddress]);\n        emit Transfer(address(0), partnerTokensAddress, balances[partnerTokensAddress]);\n        emit Transfer(address(0), advisorsTokensAddress, balances[advisorsTokensAddress]);\n        emit Transfer(address(0), marketingTokensAddress, balances[marketingTokensAddress]);\n        emit Transfer(address(0), ecosystemTokenAddress, balances[ecosystemTokenAddress]);\n        emit Transfer(address(0), reserveTokenAddress, balances[reserveTokenAddress]);\n\n\n        state = State.Active;\n\n\n        teamMaxTokensPhase1 = balances[teamTokensAddress].div(2); //50 % tokens for phase1 of 12 month\n        teamMaxTokensPhase2 = teamMaxTokensPhase1 + teamMaxTokensPhase1.div(2); //25 % tokens for phase 2 of next 6 \n                                                                                //months and 50 of phase 1 so that max 75% limit\n        teamMaxTokensPhase3 = teamMaxTokensPhase2 + teamMaxTokensPhase1.div(2); //25% tokens for phase 3 of next 6 months and can be 100%\n\n\n        partnerMaxTokensPhase1 = balances[partnerTokensAddress].div(2);\n        partnerMaxTokensPhase2 = balances[partnerTokensAddress].sub(partnerMaxTokensPhase1);\n    }\n\n\n    function close() onlyOwner public {\n        require(state == State.Active);\n        state = State.Closed;\n\n\n        teamTokensReleasePhase1 = 1530085200;  //block.timestamp + 365 seconds;\n        teamTokensReleasePhase2 = 1530085800;   //block.timestamp + 182 seconds;\n        teamTokensReleasePhase3 = 1530086400; //block.timestamp + 182 seconds;\n\n        partnerTokenReleasePhase1 = 1530087000;//block.timestamp + 182 seconds;\n        partnerTokenReleasePhase2 = 1530087600;//block.timestamp + 182 seconds;\n\n\n        reserveTokenReleasePhase = 1530090600;//block.timestamp  + 365 seconds;\n        privateSaleLockTime = 1530084000; //TODO change before live lock time of 12:20 PKTime and 16:20 KR time  \n                                         //block.timestamp + 182 seconds; //6 month lock tokens\n        \n        emit Closed();\n    }\n\n\n    function () public payable {\n        revert();\n    }\n\n\n\n    modifier checkTokensLock (uint256 _value) {\n        uint256 currentTime = block.timestamp;\n        if (msg.sender == teamTokensAddress) {\n             require(state == State.Closed);\n            require(currentTime >= teamTokensReleasePhase1);\n            if(currentTime < teamTokensReleasePhase2) {\n                require(teamTokensWithdrawl.add(_value) <= teamMaxTokensPhase1); \n                teamTokensWithdrawl = teamTokensWithdrawl.add(_value); \n                _; \n            }else if(currentTime < teamTokensReleasePhase3){\n                require(teamTokensWithdrawl.add(_value) <= teamMaxTokensPhase2); \n                teamTokensWithdrawl = teamTokensWithdrawl.add(_value); \n                _; \n            }\n            else{\n                _;\n            }\n\n        } else if( msg.sender == partnerTokensAddress ) {\n             require(state == State.Closed);\n            require(currentTime >= partnerTokenReleasePhase1);\n            if(currentTime < partnerTokenReleasePhase2){\n                require(partnerTokensWithdrawl.add(_value) <= partnerMaxTokensPhase1); \n                partnerTokensWithdrawl = partnerTokensWithdrawl.add(_value);\n                _;\n            }else{\n                _;\n            }\n        }\n        else if(msg.sender == reserveTokenAddress){\n             require(state == State.Closed);\n            require(currentTime>=reserveTokenReleasePhase);\n            _;\n        }\n        else if(privateSaleAddresses[msg.sender]>0){\n            require(state == State.Closed);\n            uint256 lockedTokens = privateSaleAddresses[msg.sender];\n            uint256 userTotalTokens = balances[msg.sender];\n            if( userTotalTokens.sub(_value) >= lockedTokens){\n                _;\n            }else{\n                require(currentTime >= privateSaleLockTime);\n                _;\n            }\n        }else{\n            _;\n        }\n    }\n\n    function privateSale(address _to, uint256 _value) onlyOwner public {\n        super.transfer(_to,_value);\n        privateSaleAddresses[_to] = privateSaleAddresses[_to].add(_value);\n\n    }\n    function transfer(address _to, uint256 _value) public checkTokensLock(_value) returns (bool) {\n        super.transfer(_to,_value);\n    }\n\n    function transferFrom(address _from, address _to, uint256 _value) public checkTokensLock(_value) returns (bool){\n        super.transferFrom(_from, _to, _value);\n    }\n\n    function approve(address _spender, uint256 _value) public checkTokensLock(_value) returns (bool) {\n        super.approve(_spender, _value);\n    }\n\n    function increaseApproval(address _spender, uint _addedValue) public checkTokensLock(_addedValue) returns (bool) {\n        super.increaseApproval(_spender, _addedValue);\n    }\n\n    function decreaseApproval(address _spender, uint _subtractedValue) public  returns (bool) {\n        super.decreaseApproval(_spender, _subtractedValue);\n    }\n    \n}\n",
  "sourcePath": "/Users/mac/Desktop/Projects/ICOS/untitled folder/ICOS/ICOS/Delta/contracts/DeltaToken.sol",
  "compiler": {
    "name": "solc",
    "version": "0.4.24+commit.e67f0147.Emscripten.clang"
  },
  "schemaVersion": "2.0.0",
  "updatedAt": "2018-06-26T19:54:34.202Z"
}